{
  "contractName": "Dex",
  "abi": [
    {
      "anonymous": false,
      "inputs": [
        {
          "indexed": true,
          "internalType": "address",
          "name": "previousOwner",
          "type": "address"
        },
        {
          "indexed": true,
          "internalType": "address",
          "name": "newOwner",
          "type": "address"
        }
      ],
      "name": "OwnershipTransferred",
      "type": "event"
    },
    {
      "inputs": [
        {
          "internalType": "bytes32",
          "name": "_ticker",
          "type": "bytes32"
        },
        {
          "internalType": "address",
          "name": "_tokenAddress",
          "type": "address"
        }
      ],
      "name": "addToken",
      "outputs": [],
      "stateMutability": "nonpayable",
      "type": "function"
    },
    {
      "inputs": [
        {
          "internalType": "address",
          "name": "",
          "type": "address"
        },
        {
          "internalType": "bytes32",
          "name": "",
          "type": "bytes32"
        }
      ],
      "name": "balances",
      "outputs": [
        {
          "internalType": "uint256",
          "name": "",
          "type": "uint256"
        }
      ],
      "stateMutability": "view",
      "type": "function",
      "constant": true
    },
    {
      "inputs": [
        {
          "internalType": "bytes32",
          "name": "_ticker",
          "type": "bytes32"
        }
      ],
      "name": "cleanWallet",
      "outputs": [],
      "stateMutability": "nonpayable",
      "type": "function"
    },
    {
      "inputs": [
        {
          "internalType": "uint256",
          "name": "_amount",
          "type": "uint256"
        },
        {
          "internalType": "bytes32",
          "name": "_ticker",
          "type": "bytes32"
        }
      ],
      "name": "deposit",
      "outputs": [],
      "stateMutability": "payable",
      "type": "function",
      "payable": true
    },
    {
      "inputs": [],
      "name": "depositEth",
      "outputs": [],
      "stateMutability": "payable",
      "type": "function",
      "payable": true
    },
    {
      "inputs": [
        {
          "internalType": "bytes32",
          "name": "_ticker",
          "type": "bytes32"
        }
      ],
      "name": "getBalance",
      "outputs": [
        {
          "internalType": "uint256",
          "name": "",
          "type": "uint256"
        }
      ],
      "stateMutability": "view",
      "type": "function",
      "constant": true
    },
    {
      "inputs": [],
      "name": "nextOrderId",
      "outputs": [
        {
          "internalType": "uint256",
          "name": "",
          "type": "uint256"
        }
      ],
      "stateMutability": "view",
      "type": "function",
      "constant": true
    },
    {
      "inputs": [
        {
          "internalType": "bytes32",
          "name": "",
          "type": "bytes32"
        },
        {
          "internalType": "uint8",
          "name": "",
          "type": "uint8"
        },
        {
          "internalType": "uint256",
          "name": "",
          "type": "uint256"
        }
      ],
      "name": "orderBook",
      "outputs": [
        {
          "internalType": "uint256",
          "name": "id",
          "type": "uint256"
        },
        {
          "internalType": "address",
          "name": "trader",
          "type": "address"
        },
        {
          "internalType": "enum Dex.Side",
          "name": "side",
          "type": "uint8"
        },
        {
          "internalType": "bytes32",
          "name": "ticker",
          "type": "bytes32"
        },
        {
          "internalType": "uint256",
          "name": "amount",
          "type": "uint256"
        },
        {
          "internalType": "uint256",
          "name": "price",
          "type": "uint256"
        },
        {
          "internalType": "uint256",
          "name": "filled",
          "type": "uint256"
        }
      ],
      "stateMutability": "view",
      "type": "function",
      "constant": true
    },
    {
      "inputs": [],
      "name": "owner",
      "outputs": [
        {
          "internalType": "address",
          "name": "",
          "type": "address"
        }
      ],
      "stateMutability": "view",
      "type": "function",
      "constant": true
    },
    {
      "inputs": [],
      "name": "renounceOwnership",
      "outputs": [],
      "stateMutability": "nonpayable",
      "type": "function"
    },
    {
      "inputs": [
        {
          "internalType": "uint256",
          "name": "",
          "type": "uint256"
        }
      ],
      "name": "tokenList",
      "outputs": [
        {
          "internalType": "bytes32",
          "name": "",
          "type": "bytes32"
        }
      ],
      "stateMutability": "view",
      "type": "function",
      "constant": true
    },
    {
      "inputs": [
        {
          "internalType": "bytes32",
          "name": "",
          "type": "bytes32"
        }
      ],
      "name": "tokenMapping",
      "outputs": [
        {
          "internalType": "bytes32",
          "name": "ticker",
          "type": "bytes32"
        },
        {
          "internalType": "address",
          "name": "tokenAddress",
          "type": "address"
        }
      ],
      "stateMutability": "view",
      "type": "function",
      "constant": true
    },
    {
      "inputs": [
        {
          "internalType": "address",
          "name": "newOwner",
          "type": "address"
        }
      ],
      "name": "transferOwnership",
      "outputs": [],
      "stateMutability": "nonpayable",
      "type": "function"
    },
    {
      "inputs": [
        {
          "internalType": "uint256",
          "name": "_amount",
          "type": "uint256"
        },
        {
          "internalType": "bytes32",
          "name": "_ticker",
          "type": "bytes32"
        }
      ],
      "name": "withdraw",
      "outputs": [],
      "stateMutability": "nonpayable",
      "type": "function"
    },
    {
      "inputs": [
        {
          "internalType": "uint256",
          "name": "_amount",
          "type": "uint256"
        }
      ],
      "name": "withdrawEth",
      "outputs": [],
      "stateMutability": "nonpayable",
      "type": "function"
    },
    {
      "inputs": [
        {
          "internalType": "bytes32",
          "name": "_ticker",
          "type": "bytes32"
        },
        {
          "internalType": "enum Dex.Side",
          "name": "_side",
          "type": "uint8"
        }
      ],
      "name": "getOrderBook",
      "outputs": [
        {
          "components": [
            {
              "internalType": "uint256",
              "name": "id",
              "type": "uint256"
            },
            {
              "internalType": "address",
              "name": "trader",
              "type": "address"
            },
            {
              "internalType": "enum Dex.Side",
              "name": "side",
              "type": "uint8"
            },
            {
              "internalType": "bytes32",
              "name": "ticker",
              "type": "bytes32"
            },
            {
              "internalType": "uint256",
              "name": "amount",
              "type": "uint256"
            },
            {
              "internalType": "uint256",
              "name": "price",
              "type": "uint256"
            },
            {
              "internalType": "uint256",
              "name": "filled",
              "type": "uint256"
            }
          ],
          "internalType": "struct Dex.Order[]",
          "name": "",
          "type": "tuple[]"
        }
      ],
      "stateMutability": "view",
      "type": "function",
      "constant": true
    },
    {
      "inputs": [
        {
          "internalType": "bytes32",
          "name": "_ticker",
          "type": "bytes32"
        },
        {
          "internalType": "enum Dex.Side",
          "name": "_side",
          "type": "uint8"
        }
      ],
      "name": "cleanOrderBook",
      "outputs": [],
      "stateMutability": "nonpayable",
      "type": "function"
    },
    {
      "inputs": [
        {
          "internalType": "enum Dex.Side",
          "name": "_side",
          "type": "uint8"
        },
        {
          "internalType": "bytes32",
          "name": "_ticker",
          "type": "bytes32"
        },
        {
          "internalType": "uint256",
          "name": "_amount",
          "type": "uint256"
        },
        {
          "internalType": "uint256",
          "name": "_price",
          "type": "uint256"
        }
      ],
      "name": "createLimitOrder",
      "outputs": [],
      "stateMutability": "nonpayable",
      "type": "function"
    },
    {
      "inputs": [
        {
          "internalType": "enum Dex.Side",
          "name": "_side",
          "type": "uint8"
        },
        {
          "internalType": "bytes32",
          "name": "_ticker",
          "type": "bytes32"
        },
        {
          "internalType": "uint256",
          "name": "_amount",
          "type": "uint256"
        }
      ],
      "name": "createMarketOrder",
      "outputs": [],
      "stateMutability": "nonpayable",
      "type": "function"
    }
  ],
  "bytecode": "0x608060405260006004553480156200001657600080fd5b50600062000029620000cd60201b60201c565b9050806000806101000a81548173ffffffffffffffffffffffffffffffffffffffff021916908373ffffffffffffffffffffffffffffffffffffffff1602179055508073ffffffffffffffffffffffffffffffffffffffff16600073ffffffffffffffffffffffffffffffffffffffff167f8be0079c531659141344cd1fd0a4f28419497f9722a3daafe3b4186f6b6457e060405160405180910390a350620000d5565b600033905090565b6147e380620000e56000396000f3fe6080604052600436106101145760003560e01c80638da5cb5b116100a0578063a8d2021a11610064578063a8d2021a14610395578063ba58ea68146103be578063c311d049146103fb578063c9630cb014610424578063f2fde38b1461044057610114565b80638da5cb5b1461029e5780638e739461146102c95780639776aacf1461030657806399ec2f1c1461032f5780639ead72221461035857610114565b8063667cb4ba116100e7578063667cb4ba146101b45780636f3b62f9146101f2578063715018a61461021b578063825682e4146102325780638c29bec01461025b57610114565b80631f14df69146101195780632a58b33014610156578063417ae96014610181578063439370b1146101aa575b600080fd5b34801561012557600080fd5b50610140600480360381019061013b9190613c4c565b610469565b60405161014d91906142df565b60405180910390f35b34801561016257600080fd5b5061016b61048e565b60405161017891906142df565b60405180910390f35b34801561018d57600080fd5b506101a860048036038101906101a39190613cb1565b610494565b005b6101b2610611565b005b3480156101c057600080fd5b506101db60048036038101906101d69190613cb1565b61070a565b6040516101e99291906141f6565b60405180910390f35b3480156101fe57600080fd5b5061021960048036038101906102149190613df0565b61074e565b005b34801561022757600080fd5b50610230611644565b005b34801561023e57600080fd5b5061025960048036038101906102549190613d16565b61177e565b005b34801561026757600080fd5b50610282600480360381019061027d9190613d52565b6118af565b60405161029597969594939291906142fa565b60405180910390f35b3480156102aa57600080fd5b506102b3611948565b6040516102c0919061413e565b60405180910390f35b3480156102d557600080fd5b506102f060048036038101906102eb9190613cb1565b611971565b6040516102fd91906142df565b60405180910390f35b34801561031257600080fd5b5061032d60048036038101906103289190613cda565b611a73565b005b34801561033b57600080fd5b5061035660048036038101906103519190613da1565b611bae565b005b34801561036457600080fd5b5061037f600480360381019061037a9190613e53565b612fc3565b60405161038c91906141db565b60405180910390f35b3480156103a157600080fd5b506103bc60048036038101906103b79190613e7c565b612fe7565b005b3480156103ca57600080fd5b506103e560048036038101906103e09190613d16565b6132a1565b6040516103f291906141b9565b60405180910390f35b34801561040757600080fd5b50610422600480360381019061041d9190613e53565b613472565b005b61043e60048036038101906104399190613e7c565b613789565b005b34801561044c57600080fd5b5061046760048036038101906104629190613c23565b6139b2565b005b6003602052816000526040600020602052806000526040600020600091509150505481565b60045481565b80600073ffffffffffffffffffffffffffffffffffffffff166001600083815260200190815260200160002060010160009054906101000a900473ffffffffffffffffffffffffffffffffffffffff1673ffffffffffffffffffffffffffffffffffffffff16141561053b576040517f08c379a00000000000000000000000000000000000000000000000000000000081526004016105329061425f565b60405180910390fd5b610543613b5b565b73ffffffffffffffffffffffffffffffffffffffff16610561611948565b73ffffffffffffffffffffffffffffffffffffffff16146105b7576040517f08c379a00000000000000000000000000000000000000000000000000000000081526004016105ae9061427f565b60405180910390fd5b6000600360003373ffffffffffffffffffffffffffffffffffffffff1673ffffffffffffffffffffffffffffffffffffffff1681526020019081526020016000206000848152602001908152602001600020819055505050565b61069434600360003373ffffffffffffffffffffffffffffffffffffffff1673ffffffffffffffffffffffffffffffffffffffff16815260200190815260200160002060007f4554480000000000000000000000000000000000000000000000000000000000815260200190815260200160002054613b6390919063ffffffff16565b600360003373ffffffffffffffffffffffffffffffffffffffff1673ffffffffffffffffffffffffffffffffffffffff16815260200190815260200160002060007f4554480000000000000000000000000000000000000000000000000000000000815260200190815260200160002081905550565b60016020528060005260406000206000915090508060000154908060010160009054906101000a900473ffffffffffffffffffffffffffffffffffffffff16905082565b60006001811115610788577f4e487b7100000000000000000000000000000000000000000000000000000000600052602160045260246000fd5b8460018111156107c1577f4e487b7100000000000000000000000000000000000000000000000000000000600052602160045260246000fd5b141561085b576107da8183613b7990919063ffffffff16565b600360003373ffffffffffffffffffffffffffffffffffffffff1673ffffffffffffffffffffffffffffffffffffffff16815260200190815260200160002060007f4554480000000000000000000000000000000000000000000000000000000000815260200190815260200160002054101561085657600080fd5b610932565b600180811115610894577f4e487b7100000000000000000000000000000000000000000000000000000000600052602160045260246000fd5b8460018111156108cd577f4e487b7100000000000000000000000000000000000000000000000000000000600052602160045260246000fd5b14156109315781600360003373ffffffffffffffffffffffffffffffffffffffff1673ffffffffffffffffffffffffffffffffffffffff168152602001908152602001600020600085815260200190815260200160002054101561093057600080fd5b5b5b6000600560008581526020019081526020016000206000866001811115610982577f4e487b7100000000000000000000000000000000000000000000000000000000600052602160045260246000fd5b60ff1660ff1681526020019081526020016000209050806040518060e0016040528060045481526020013373ffffffffffffffffffffffffffffffffffffffff168152602001876001811115610a01577f4e487b7100000000000000000000000000000000000000000000000000000000600052602160045260246000fd5b8152602001868152602001858152602001848152602001600081525090806001815401808255809150506001900390600052602060002090600602016000909190919091506000820151816000015560208201518160010160006101000a81548173ffffffffffffffffffffffffffffffffffffffff021916908373ffffffffffffffffffffffffffffffffffffffff16021790555060408201518160010160146101000a81548160ff02191690836001811115610ae8577f4e487b7100000000000000000000000000000000000000000000000000000000600052602160045260246000fd5b0217905550606082015181600201556080820151816003015560a0820151816004015560c08201518160050155505060046000815480929190610b2a90614550565b919050555060008180549050905060006001811115610b72577f4e487b7100000000000000000000000000000000000000000000000000000000600052602160045260246000fd5b866001811115610bab577f4e487b7100000000000000000000000000000000000000000000000000000000600052602160045260246000fd5b14156110bc576000600182610bc0919061446e565b90505b60008111156110b65782600182610bda919061446e565b81548110610c11577f4e487b7100000000000000000000000000000000000000000000000000000000600052603260045260246000fd5b906000526020600020906006020160040154838281548110610c5c577f4e487b7100000000000000000000000000000000000000000000000000000000600052603260045260246000fd5b906000526020600020906006020160040154111561109e576000838281548110610caf577f4e487b7100000000000000000000000000000000000000000000000000000000600052603260045260246000fd5b90600052602060002090600602016040518060e0016040529081600082015481526020016001820160009054906101000a900473ffffffffffffffffffffffffffffffffffffffff1673ffffffffffffffffffffffffffffffffffffffff1673ffffffffffffffffffffffffffffffffffffffff1681526020016001820160149054906101000a900460ff166001811115610d73577f4e487b7100000000000000000000000000000000000000000000000000000000600052602160045260246000fd5b6001811115610dab577f4e487b7100000000000000000000000000000000000000000000000000000000600052602160045260246000fd5b8152602001600282015481526020016003820154815260200160048201548152602001600582015481525050905083600183610de7919061446e565b81548110610e1e577f4e487b7100000000000000000000000000000000000000000000000000000000600052603260045260246000fd5b9060005260206000209060060201848381548110610e65577f4e487b7100000000000000000000000000000000000000000000000000000000600052603260045260246000fd5b9060005260206000209060060201600082015481600001556001820160009054906101000a900473ffffffffffffffffffffffffffffffffffffffff168160010160006101000a81548173ffffffffffffffffffffffffffffffffffffffff021916908373ffffffffffffffffffffffffffffffffffffffff1602179055506001820160149054906101000a900460ff168160010160146101000a81548160ff02191690836001811115610f42577f4e487b7100000000000000000000000000000000000000000000000000000000600052602160045260246000fd5b0217905550600282015481600201556003820154816003015560048201548160040155600582015481600501559050508084600184610f81919061446e565b81548110610fb8577f4e487b7100000000000000000000000000000000000000000000000000000000600052603260045260246000fd5b90600052602060002090600602016000820151816000015560208201518160010160006101000a81548173ffffffffffffffffffffffffffffffffffffffff021916908373ffffffffffffffffffffffffffffffffffffffff16021790555060408201518160010160146101000a81548160ff02191690836001811115611068577f4e487b7100000000000000000000000000000000000000000000000000000000600052602160045260246000fd5b0217905550606082015181600201556080820151816003015560a0820151816004015560c08201518160050155905050506110a3565b6110b6565b80806110ae90614526565b915050610bc3565b5061163c565b6001808111156110f5577f4e487b7100000000000000000000000000000000000000000000000000000000600052602160045260246000fd5b86600181111561112e577f4e487b7100000000000000000000000000000000000000000000000000000000600052602160045260246000fd5b141561163b576000600182611143919061446e565b90505b6000811115611639578260018261115d919061446e565b81548110611194577f4e487b7100000000000000000000000000000000000000000000000000000000600052603260045260246000fd5b9060005260206000209060060201600401548382815481106111df577f4e487b7100000000000000000000000000000000000000000000000000000000600052603260045260246000fd5b9060005260206000209060060201600401541015611621576000838281548110611232577f4e487b7100000000000000000000000000000000000000000000000000000000600052603260045260246000fd5b90600052602060002090600602016040518060e0016040529081600082015481526020016001820160009054906101000a900473ffffffffffffffffffffffffffffffffffffffff1673ffffffffffffffffffffffffffffffffffffffff1673ffffffffffffffffffffffffffffffffffffffff1681526020016001820160149054906101000a900460ff1660018111156112f6577f4e487b7100000000000000000000000000000000000000000000000000000000600052602160045260246000fd5b600181111561132e577f4e487b7100000000000000000000000000000000000000000000000000000000600052602160045260246000fd5b815260200160028201548152602001600382015481526020016004820154815260200160058201548152505090508360018361136a919061446e565b815481106113a1577f4e487b7100000000000000000000000000000000000000000000000000000000600052603260045260246000fd5b90600052602060002090600602018483815481106113e8577f4e487b7100000000000000000000000000000000000000000000000000000000600052603260045260246000fd5b9060005260206000209060060201600082015481600001556001820160009054906101000a900473ffffffffffffffffffffffffffffffffffffffff168160010160006101000a81548173ffffffffffffffffffffffffffffffffffffffff021916908373ffffffffffffffffffffffffffffffffffffffff1602179055506001820160149054906101000a900460ff168160010160146101000a81548160ff021916908360018111156114c5577f4e487b7100000000000000000000000000000000000000000000000000000000600052602160045260246000fd5b0217905550600282015481600201556003820154816003015560048201548160040155600582015481600501559050508084600184611504919061446e565b8154811061153b577f4e487b7100000000000000000000000000000000000000000000000000000000600052603260045260246000fd5b90600052602060002090600602016000820151816000015560208201518160010160006101000a81548173ffffffffffffffffffffffffffffffffffffffff021916908373ffffffffffffffffffffffffffffffffffffffff16021790555060408201518160010160146101000a81548160ff021916908360018111156115eb577f4e487b7100000000000000000000000000000000000000000000000000000000600052602160045260246000fd5b0217905550606082015181600201556080820151816003015560a0820151816004015560c0820151816005015590505050611626565b611639565b808061163190614526565b915050611146565b505b5b505050505050565b61164c613b5b565b73ffffffffffffffffffffffffffffffffffffffff1661166a611948565b73ffffffffffffffffffffffffffffffffffffffff16146116c0576040517f08c379a00000000000000000000000000000000000000000000000000000000081526004016116b79061427f565b60405180910390fd5b600073ffffffffffffffffffffffffffffffffffffffff1660008054906101000a900473ffffffffffffffffffffffffffffffffffffffff1673ffffffffffffffffffffffffffffffffffffffff167f8be0079c531659141344cd1fd0a4f28419497f9722a3daafe3b4186f6b6457e060405160405180910390a360008060006101000a81548173ffffffffffffffffffffffffffffffffffffffff021916908373ffffffffffffffffffffffffffffffffffffffff160217905550565b60006005600084815260200190815260200160002060008360018111156117ce577f4e487b7100000000000000000000000000000000000000000000000000000000600052602160045260246000fd5b60ff1660ff16815260200190815260200160002090505b6000818054905011156118aa5780805480611829577f4e487b7100000000000000000000000000000000000000000000000000000000600052603160045260246000fd5b60019003818190600052602060002090600602016000808201600090556001820160006101000a81549073ffffffffffffffffffffffffffffffffffffffff02191690556001820160146101000a81549060ff02191690556002820160009055600382016000905560048201600090556005820160009055505090556117e5565b505050565b600560205282600052604060002060205281600052604060002081815481106118d757600080fd5b906000526020600020906006020160009250925050508060000154908060010160009054906101000a900473ffffffffffffffffffffffffffffffffffffffff16908060010160149054906101000a900460ff16908060020154908060030154908060040154908060050154905087565b60008060009054906101000a900473ffffffffffffffffffffffffffffffffffffffff16905090565b600081600073ffffffffffffffffffffffffffffffffffffffff166001600083815260200190815260200160002060010160009054906101000a900473ffffffffffffffffffffffffffffffffffffffff1673ffffffffffffffffffffffffffffffffffffffff161415611a1a576040517f08c379a0000000000000000000000000000000000000000000000000000000008152600401611a119061425f565b60405180910390fd5b600360003373ffffffffffffffffffffffffffffffffffffffff1673ffffffffffffffffffffffffffffffffffffffff168152602001908152602001600020600084815260200190815260200160002054915050919050565b611a7b613b5b565b73ffffffffffffffffffffffffffffffffffffffff16611a99611948565b73ffffffffffffffffffffffffffffffffffffffff1614611aef576040517f08c379a0000000000000000000000000000000000000000000000000000000008152600401611ae69061427f565b60405180910390fd5b60405180604001604052808381526020018273ffffffffffffffffffffffffffffffffffffffff16815250600160008481526020019081526020016000206000820151816000015560208201518160010160006101000a81548173ffffffffffffffffffffffffffffffffffffffff021916908373ffffffffffffffffffffffffffffffffffffffff16021790555090505060028290806001815401808255809150506001900390600052602060002001600090919091909150555050565b6000600560008481526020019081526020016000206000806001811115611bfe577f4e487b7100000000000000000000000000000000000000000000000000000000600052602160045260246000fd5b866001811115611c37577f4e487b7100000000000000000000000000000000000000000000000000000000600052602160045260246000fd5b14611c43576000611c46565b60015b60ff1660ff16815260200190815260200160002090506000806001811115611c97577f4e487b7100000000000000000000000000000000000000000000000000000000600052602160045260246000fd5b856001811115611cd0577f4e487b7100000000000000000000000000000000000000000000000000000000600052602160045260246000fd5b1415611d8e576000600360003373ffffffffffffffffffffffffffffffffffffffff1673ffffffffffffffffffffffffffffffffffffffff16815260200190815260200160002060007f455448000000000000000000000000000000000000000000000000000000000081526020019081526020016000205411611d89576040517f08c379a0000000000000000000000000000000000000000000000000000000008152600401611d809061429f565b60405180910390fd5b611e22565b82600360003373ffffffffffffffffffffffffffffffffffffffff1673ffffffffffffffffffffffffffffffffffffffff1681526020019081526020016000206000868152602001908152602001600020541015611e21576040517f08c379a0000000000000000000000000000000000000000000000000000000008152600401611e189061429f565b60405180910390fd5b5b60005b828054905081108015611e3757508382105b15612c7d5783838281548110611e76577f4e487b7100000000000000000000000000000000000000000000000000000000600052603260045260246000fd5b90600052602060002090600602016003015483611e9391906143be565b10611f09578184611ea4919061446e565b838281548110611edd577f4e487b7100000000000000000000000000000000000000000000000000000000600052603260045260246000fd5b90600052602060002090600602016005016000828254611efd91906143be565b92505081905550611fb5565b828181548110611f42577f4e487b7100000000000000000000000000000000000000000000000000000000600052603260045260246000fd5b906000526020600020906006020160030154838281548110611f8d577f4e487b7100000000000000000000000000000000000000000000000000000000600052603260045260246000fd5b90600052602060002090600602016005016000828254611fad91906143be565b925050819055505b828181548110611fee577f4e487b7100000000000000000000000000000000000000000000000000000000600052603260045260246000fd5b9060005260206000209060060201600501548261200b91906143be565b9150828181548110612046577f4e487b7100000000000000000000000000000000000000000000000000000000600052603260045260246000fd5b906000526020600020906006020160050154838281548110612091577f4e487b7100000000000000000000000000000000000000000000000000000000600052603260045260246000fd5b906000526020600020906006020160030160008282546120b1919061446e565b92505081905550600060018111156120f2577f4e487b7100000000000000000000000000000000000000000000000000000000600052602160045260246000fd5b86600181111561212b577f4e487b7100000000000000000000000000000000000000000000000000000000600052602160045260246000fd5b141561270a5782818154811061216a577f4e487b7100000000000000000000000000000000000000000000000000000000600052603260045260246000fd5b9060005260206000209060060201600401548382815481106121b5577f4e487b7100000000000000000000000000000000000000000000000000000000600052603260045260246000fd5b9060005260206000209060060201600501546121d19190614414565b600360003373ffffffffffffffffffffffffffffffffffffffff1673ffffffffffffffffffffffffffffffffffffffff16815260200190815260200160002060007f45544800000000000000000000000000000000000000000000000000000000008152602001908152602001600020541015612283576040517f08c379a000000000000000000000000000000000000000000000000000000000815260040161227a9061429f565b60405180910390fd5b8281815481106122bc577f4e487b7100000000000000000000000000000000000000000000000000000000600052603260045260246000fd5b906000526020600020906006020160040154838281548110612307577f4e487b7100000000000000000000000000000000000000000000000000000000600052603260045260246000fd5b9060005260206000209060060201600501546123239190614414565b600360003373ffffffffffffffffffffffffffffffffffffffff1673ffffffffffffffffffffffffffffffffffffffff16815260200190815260200160002060007f4554480000000000000000000000000000000000000000000000000000000000815260200190815260200160002060008282546123a2919061446e565b925050819055508281815481106123e2577f4e487b7100000000000000000000000000000000000000000000000000000000600052603260045260246000fd5b906000526020600020906006020160050154600360003373ffffffffffffffffffffffffffffffffffffffff1673ffffffffffffffffffffffffffffffffffffffff1681526020019081526020016000206000878152602001908152602001600020600082825461245391906143be565b92505081905550828181548110612493577f4e487b7100000000000000000000000000000000000000000000000000000000600052603260045260246000fd5b9060005260206000209060060201600401548382815481106124de577f4e487b7100000000000000000000000000000000000000000000000000000000600052603260045260246000fd5b9060005260206000209060060201600501546124fa9190614414565b60036000858481548110612537577f4e487b7100000000000000000000000000000000000000000000000000000000600052603260045260246000fd5b906000526020600020906006020160010160009054906101000a900473ffffffffffffffffffffffffffffffffffffffff1673ffffffffffffffffffffffffffffffffffffffff1673ffffffffffffffffffffffffffffffffffffffff16815260200190815260200160002060007f4554480000000000000000000000000000000000000000000000000000000000815260200190815260200160002060008282546125e391906143be565b92505081905550828181548110612623577f4e487b7100000000000000000000000000000000000000000000000000000000600052603260045260246000fd5b90600052602060002090600602016005015460036000858481548110612672577f4e487b7100000000000000000000000000000000000000000000000000000000600052603260045260246000fd5b906000526020600020906006020160010160009054906101000a900473ffffffffffffffffffffffffffffffffffffffff1673ffffffffffffffffffffffffffffffffffffffff1673ffffffffffffffffffffffffffffffffffffffff168152602001908152602001600020600087815260200190815260200160002060008282546126fe919061446e565b92505081905550612c6a565b828181548110612743577f4e487b7100000000000000000000000000000000000000000000000000000000600052603260045260246000fd5b906000526020600020906006020160050154600360003373ffffffffffffffffffffffffffffffffffffffff1673ffffffffffffffffffffffffffffffffffffffff16815260200190815260200160002060008781526020019081526020016000205410156127e7576040517f08c379a00000000000000000000000000000000000000000000000000000000081526004016127de9061429f565b60405180910390fd5b828181548110612820577f4e487b7100000000000000000000000000000000000000000000000000000000600052603260045260246000fd5b906000526020600020906006020160050154600360003373ffffffffffffffffffffffffffffffffffffffff1673ffffffffffffffffffffffffffffffffffffffff16815260200190815260200160002060008781526020019081526020016000206000828254612891919061446e565b925050819055508281815481106128d1577f4e487b7100000000000000000000000000000000000000000000000000000000600052603260045260246000fd5b90600052602060002090600602016004015483828154811061291c577f4e487b7100000000000000000000000000000000000000000000000000000000600052603260045260246000fd5b9060005260206000209060060201600501546129389190614414565b600360003373ffffffffffffffffffffffffffffffffffffffff1673ffffffffffffffffffffffffffffffffffffffff16815260200190815260200160002060007f4554480000000000000000000000000000000000000000000000000000000000815260200190815260200160002060008282546129b791906143be565b925050819055508281815481106129f7577f4e487b7100000000000000000000000000000000000000000000000000000000600052603260045260246000fd5b90600052602060002090600602016005015460036000858481548110612a46577f4e487b7100000000000000000000000000000000000000000000000000000000600052603260045260246000fd5b906000526020600020906006020160010160009054906101000a900473ffffffffffffffffffffffffffffffffffffffff1673ffffffffffffffffffffffffffffffffffffffff1673ffffffffffffffffffffffffffffffffffffffff16815260200190815260200160002060008781526020019081526020016000206000828254612ad291906143be565b92505081905550828181548110612b12577f4e487b7100000000000000000000000000000000000000000000000000000000600052603260045260246000fd5b906000526020600020906006020160040154838281548110612b5d577f4e487b7100000000000000000000000000000000000000000000000000000000600052603260045260246000fd5b906000526020600020906006020160050154612b799190614414565b60036000858481548110612bb6577f4e487b7100000000000000000000000000000000000000000000000000000000600052603260045260246000fd5b906000526020600020906006020160010160009054906101000a900473ffffffffffffffffffffffffffffffffffffffff1673ffffffffffffffffffffffffffffffffffffffff1673ffffffffffffffffffffffffffffffffffffffff16815260200190815260200160002060007f455448000000000000000000000000000000000000000000000000000000000081526020019081526020016000206000828254612c62919061446e565b925050819055505b8080612c7590614550565b915050611e25565b506000828054905014612fbc576000805b838054905081108015612ceb57506000848281548110612cd7577f4e487b7100000000000000000000000000000000000000000000000000000000600052603260045260246000fd5b906000526020600020906006020160030154145b15612d11578180612cfb90614550565b9250508080612d0990614550565b915050612c8e565b5060005b60008214158015612d345750818480549050612d31919061446e565b81105b15612ee457838282612d4691906143be565b81548110612d7d577f4e487b7100000000000000000000000000000000000000000000000000000000600052603260045260246000fd5b9060005260206000209060060201848281548110612dc4577f4e487b7100000000000000000000000000000000000000000000000000000000600052603260045260246000fd5b9060005260206000209060060201600082015481600001556001820160009054906101000a900473ffffffffffffffffffffffffffffffffffffffff168160010160006101000a81548173ffffffffffffffffffffffffffffffffffffffff021916908373ffffffffffffffffffffffffffffffffffffffff1602179055506001820160149054906101000a900460ff168160010160146101000a81548160ff02191690836001811115612ea1577f4e487b7100000000000000000000000000000000000000000000000000000000600052602160045260246000fd5b0217905550600282015481600201556003820154816003015560048201548160040155600582015481600501559050508080612edc90614550565b915050612d15565b506000600190505b818111612fb95783805480612f2a577f4e487b7100000000000000000000000000000000000000000000000000000000600052603160045260246000fd5b60019003818190600052602060002090600602016000808201600090556001820160006101000a81549073ffffffffffffffffffffffffffffffffffffffff02191690556001820160146101000a81549060ff02191690556002820160009055600382016000905560048201600090556005820160009055505090558080612fb190614550565b915050612eec565b50505b5050505050565b60028181548110612fd357600080fd5b906000526020600020016000915090505481565b80600073ffffffffffffffffffffffffffffffffffffffff166001600083815260200190815260200160002060010160009054906101000a900473ffffffffffffffffffffffffffffffffffffffff1673ffffffffffffffffffffffffffffffffffffffff16141561308e576040517f08c379a00000000000000000000000000000000000000000000000000000000081526004016130859061425f565b60405180910390fd5b82600360003373ffffffffffffffffffffffffffffffffffffffff1673ffffffffffffffffffffffffffffffffffffffff1681526020019081526020016000206000848152602001908152602001600020541015613121576040517f08c379a0000000000000000000000000000000000000000000000000000000008152600401613118906142bf565b60405180910390fd5b61318483600360003373ffffffffffffffffffffffffffffffffffffffff1673ffffffffffffffffffffffffffffffffffffffff168152602001908152602001600020600085815260200190815260200160002054613b8f90919063ffffffff16565b600360003373ffffffffffffffffffffffffffffffffffffffff1673ffffffffffffffffffffffffffffffffffffffff1681526020019081526020016000206000848152602001908152602001600020819055506001600083815260200190815260200160002060010160009054906101000a900473ffffffffffffffffffffffffffffffffffffffff1673ffffffffffffffffffffffffffffffffffffffff1663a9059cbb33856040518363ffffffff1660e01b8152600401613249929190614190565b602060405180830381600087803b15801561326357600080fd5b505af1158015613277573d6000803e3d6000fd5b505050506040513d601f19601f8201168201806040525081019061329b9190613c88565b50505050565b60606005600084815260200190815260200160002060008360018111156132f1577f4e487b7100000000000000000000000000000000000000000000000000000000600052602160045260246000fd5b60ff1660ff168152602001908152602001600020805480602002602001604051908101604052809291908181526020016000905b8282101561346657838290600052602060002090600602016040518060e0016040529081600082015481526020016001820160009054906101000a900473ffffffffffffffffffffffffffffffffffffffff1673ffffffffffffffffffffffffffffffffffffffff1673ffffffffffffffffffffffffffffffffffffffff1681526020016001820160149054906101000a900460ff1660018111156133f3577f4e487b7100000000000000000000000000000000000000000000000000000000600052602160045260246000fd5b600181111561342b577f4e487b7100000000000000000000000000000000000000000000000000000000600052602160045260246000fd5b815260200160028201548152602001600382015481526020016004820154815260200160058201548152505081526020019060010190613325565b50505050905092915050565b80600360003373ffffffffffffffffffffffffffffffffffffffff1673ffffffffffffffffffffffffffffffffffffffff16815260200190815260200160002060007f45544800000000000000000000000000000000000000000000000000000000008152602001908152602001600020541015613525576040517f08c379a000000000000000000000000000000000000000000000000000000000815260040161351c9061423f565b60405180910390fd5b6135a881600360003373ffffffffffffffffffffffffffffffffffffffff1673ffffffffffffffffffffffffffffffffffffffff16815260200190815260200160002060007f4554480000000000000000000000000000000000000000000000000000000000815260200190815260200160002054613b8f90919063ffffffff16565b600360003373ffffffffffffffffffffffffffffffffffffffff1673ffffffffffffffffffffffffffffffffffffffff16815260200190815260200160002060007f455448000000000000000000000000000000000000000000000000000000000081526020019081526020016000208190555060003373ffffffffffffffffffffffffffffffffffffffff168260405161364290614129565b60006040518083038185875af1925050503d806000811461367f576040519150601f19603f3d011682016040523d82523d6000602084013e613684565b606091505b50509050806137855761371082600360003373ffffffffffffffffffffffffffffffffffffffff1673ffffffffffffffffffffffffffffffffffffffff16815260200190815260200160002060007f4554480000000000000000000000000000000000000000000000000000000000815260200190815260200160002054613b6390919063ffffffff16565b600360003373ffffffffffffffffffffffffffffffffffffffff1673ffffffffffffffffffffffffffffffffffffffff16815260200190815260200160002060007f45544800000000000000000000000000000000000000000000000000000000008152602001908152602001600020819055505b5050565b80600073ffffffffffffffffffffffffffffffffffffffff166001600083815260200190815260200160002060010160009054906101000a900473ffffffffffffffffffffffffffffffffffffffff1673ffffffffffffffffffffffffffffffffffffffff161415613830576040517f08c379a00000000000000000000000000000000000000000000000000000000081526004016138279061425f565b60405180910390fd5b61389383600360003373ffffffffffffffffffffffffffffffffffffffff1673ffffffffffffffffffffffffffffffffffffffff168152602001908152602001600020600085815260200190815260200160002054613b6390919063ffffffff16565b600360003373ffffffffffffffffffffffffffffffffffffffff1673ffffffffffffffffffffffffffffffffffffffff1681526020019081526020016000206000848152602001908152602001600020819055506001600083815260200190815260200160002060010160009054906101000a900473ffffffffffffffffffffffffffffffffffffffff1673ffffffffffffffffffffffffffffffffffffffff166323b872dd3330866040518463ffffffff1660e01b815260040161395a93929190614159565b602060405180830381600087803b15801561397457600080fd5b505af1158015613988573d6000803e3d6000fd5b505050506040513d601f19601f820116820180604052508101906139ac9190613c88565b50505050565b6139ba613b5b565b73ffffffffffffffffffffffffffffffffffffffff166139d8611948565b73ffffffffffffffffffffffffffffffffffffffff1614613a2e576040517f08c379a0000000000000000000000000000000000000000000000000000000008152600401613a259061427f565b60405180910390fd5b600073ffffffffffffffffffffffffffffffffffffffff168173ffffffffffffffffffffffffffffffffffffffff161415613a9e576040517f08c379a0000000000000000000000000000000000000000000000000000000008152600401613a959061421f565b60405180910390fd5b8073ffffffffffffffffffffffffffffffffffffffff1660008054906101000a900473ffffffffffffffffffffffffffffffffffffffff1673ffffffffffffffffffffffffffffffffffffffff167f8be0079c531659141344cd1fd0a4f28419497f9722a3daafe3b4186f6b6457e060405160405180910390a3806000806101000a81548173ffffffffffffffffffffffffffffffffffffffff021916908373ffffffffffffffffffffffffffffffffffffffff16021790555050565b600033905090565b60008183613b7191906143be565b905092915050565b60008183613b879190614414565b905092915050565b60008183613b9d919061446e565b905092915050565b600081359050613bb48161472a565b92915050565b600081519050613bc981614741565b92915050565b600081359050613bde81614758565b92915050565b600081359050613bf38161476f565b92915050565b600081359050613c088161477f565b92915050565b600081359050613c1d81614796565b92915050565b600060208284031215613c3557600080fd5b6000613c4384828501613ba5565b91505092915050565b60008060408385031215613c5f57600080fd5b6000613c6d85828601613ba5565b9250506020613c7e85828601613bcf565b9150509250929050565b600060208284031215613c9a57600080fd5b6000613ca884828501613bba565b91505092915050565b600060208284031215613cc357600080fd5b6000613cd184828501613bcf565b91505092915050565b60008060408385031215613ced57600080fd5b6000613cfb85828601613bcf565b9250506020613d0c85828601613ba5565b9150509250929050565b60008060408385031215613d2957600080fd5b6000613d3785828601613bcf565b9250506020613d4885828601613be4565b9150509250929050565b600080600060608486031215613d6757600080fd5b6000613d7586828701613bcf565b9350506020613d8686828701613c0e565b9250506040613d9786828701613bf9565b9150509250925092565b600080600060608486031215613db657600080fd5b6000613dc486828701613be4565b9350506020613dd586828701613bcf565b9250506040613de686828701613bf9565b9150509250925092565b60008060008060808587031215613e0657600080fd5b6000613e1487828801613be4565b9450506020613e2587828801613bcf565b9350506040613e3687828801613bf9565b9250506060613e4787828801613bf9565b91505092959194509250565b600060208284031215613e6557600080fd5b6000613e7384828501613bf9565b91505092915050565b60008060408385031215613e8f57600080fd5b6000613e9d85828601613bf9565b9250506020613eae85828601613bcf565b9150509250929050565b6000613ec4838361407d565b60e08301905092915050565b613ed9816144a2565b82525050565b613ee8816144a2565b82525050565b6000613ef982614379565b613f038185614391565b9350613f0e83614369565b8060005b83811015613f3f578151613f268882613eb8565b9750613f3183614384565b925050600181019050613f12565b5085935050505092915050565b613f55816144c0565b82525050565b613f64816144c0565b82525050565b613f7381614514565b82525050565b613f8281614514565b82525050565b6000613f956026836143ad565b9150613fa0826145f7565b604082019050919050565b6000613fb86012836143ad565b9150613fc382614646565b602082019050919050565b6000613fdb6014836143ad565b9150613fe68261466f565b602082019050919050565b6000613ffe6020836143ad565b915061400982614698565b602082019050919050565b60006140216014836143ad565b915061402c826146c1565b602082019050919050565b60006140446016836143ad565b915061404f826146ea565b602082019050919050565b60006140676000836143a2565b915061407282614713565b600082019050919050565b60e082016000820151614093600085018261410b565b5060208201516140a66020850182613ed0565b5060408201516140b96040850182613f6a565b5060608201516140cc6060850182613f4c565b5060808201516140df608085018261410b565b5060a08201516140f260a085018261410b565b5060c082015161410560c085018261410b565b50505050565b614114816144fd565b82525050565b614123816144fd565b82525050565b60006141348261405a565b9150819050919050565b60006020820190506141536000830184613edf565b92915050565b600060608201905061416e6000830186613edf565b61417b6020830185613edf565b614188604083018461411a565b949350505050565b60006040820190506141a56000830185613edf565b6141b2602083018461411a565b9392505050565b600060208201905081810360008301526141d38184613eee565b905092915050565b60006020820190506141f06000830184613f5b565b92915050565b600060408201905061420b6000830185613f5b565b6142186020830184613edf565b9392505050565b6000602082019050818103600083015261423881613f88565b9050919050565b6000602082019050818103600083015261425881613fab565b9050919050565b6000602082019050818103600083015261427881613fce565b9050919050565b6000602082019050818103600083015261429881613ff1565b9050919050565b600060208201905081810360008301526142b881614014565b9050919050565b600060208201905081810360008301526142d881614037565b9050919050565b60006020820190506142f4600083018461411a565b92915050565b600060e08201905061430f600083018a61411a565b61431c6020830189613edf565b6143296040830188613f79565b6143366060830187613f5b565b614343608083018661411a565b61435060a083018561411a565b61435d60c083018461411a565b98975050505050505050565b6000819050602082019050919050565b600081519050919050565b6000602082019050919050565b600082825260208201905092915050565b600081905092915050565b600082825260208201905092915050565b60006143c9826144fd565b91506143d4836144fd565b9250827fffffffffffffffffffffffffffffffffffffffffffffffffffffffffffffffff0382111561440957614408614599565b5b828201905092915050565b600061441f826144fd565b915061442a836144fd565b9250817fffffffffffffffffffffffffffffffffffffffffffffffffffffffffffffffff048311821515161561446357614462614599565b5b828202905092915050565b6000614479826144fd565b9150614484836144fd565b92508282101561449757614496614599565b5b828203905092915050565b60006144ad826144dd565b9050919050565b60008115159050919050565b6000819050919050565b60008190506144d882614716565b919050565b600073ffffffffffffffffffffffffffffffffffffffff82169050919050565b6000819050919050565b600060ff82169050919050565b600061451f826144ca565b9050919050565b6000614531826144fd565b9150600082141561454557614544614599565b5b600182039050919050565b600061455b826144fd565b91507fffffffffffffffffffffffffffffffffffffffffffffffffffffffffffffffff82141561458e5761458d614599565b5b600182019050919050565b7f4e487b7100000000000000000000000000000000000000000000000000000000600052601160045260246000fd5b7f4e487b7100000000000000000000000000000000000000000000000000000000600052602160045260246000fd5b7f4f776e61626c653a206e6577206f776e657220697320746865207a65726f206160008201527f6464726573730000000000000000000000000000000000000000000000000000602082015250565b7f496e7375666669656e742062616c616e63650000000000000000000000000000600082015250565b7f546f6b656e20646f6573206e6f74206578697374000000000000000000000000600082015250565b7f4f776e61626c653a2063616c6c6572206973206e6f7420746865206f776e6572600082015250565b7f696e73756666696369656e742062616c616e6365000000000000000000000000600082015250565b7f42616c616e6365206e6f742073756666696369656e7400000000000000000000600082015250565b50565b60028110614727576147266145c8565b5b50565b614733816144a2565b811461473e57600080fd5b50565b61474a816144b4565b811461475557600080fd5b50565b614761816144c0565b811461476c57600080fd5b50565b6002811061477c57600080fd5b50565b614788816144fd565b811461479357600080fd5b50565b61479f81614507565b81146147aa57600080fd5b5056fea2646970667358221220edee929547b964c68b11cec76fa36fcd6424a5cc209488c75908f7614839cd6664736f6c63430008030033",
  "immutableReferences": {},
  "source": "// SPDX-License-Identifier: MIT\npragma solidity ^0.8.0;\n\nimport \"./wallet.sol\";\n\ncontract Dex is Wallet{\n  using SafeMath for uint;\n\n  enum Side {\n    BUY,\n    SELL\n  }\n\n  struct Order {\n    uint id;\n    address trader;\n    Side side;\n    bytes32 ticker;\n    uint amount;\n    uint price;\n    uint filled;\n  }\n\n  uint public nextOrderId = 0;\n\n  mapping(bytes32 => mapping(uint8 => Order[])) public orderBook;\n\n  function getOrderBook(bytes32 _ticker, Side _side) view public returns(Order[] memory){\n    return orderBook[_ticker][uint8(_side)];\n  }\n\n  function cleanOrderBook(bytes32 _ticker, Side _side) public { //only for testing purpose\n    Order[] storage orders = orderBook[_ticker][uint8(_side)];\n    while(orders.length > 0){\n      orders.pop();\n    }\n  }\n\n  function createLimitOrder(Side _side, bytes32 _ticker, uint _amount, uint _price) public{\n    if(_side == Side.BUY){\n      require(balances[msg.sender][\"ETH\"] >= _amount.mul(_price));\n    }else if(_side == Side.SELL){\n      require(balances[msg.sender][_ticker] >= _amount);\n    }\n\n    Order[] storage orders = orderBook[_ticker][uint8(_side)];\n    orders.push(Order(nextOrderId, msg.sender, _side, _ticker, _amount, _price, 0));\n    nextOrderId++;\n\n    uint n = orders.length;\n    if(_side == Side.BUY){\n      for(uint i=n-1;i>0;i--){ \n        if(orders[i].price > orders[i-1].price){\n          Order memory tmp = orders[i];\n          orders[i] = orders[i-1];\n          orders[i-1] = tmp;\n        }else{\n          break;\n        }\n      }\n    }else if(_side == Side.SELL){\n      for(uint i=n-1;i>0;i--){\n        if(orders[i].price < orders[i-1].price){\n          Order memory tmp = orders[i];\n          orders[i] = orders[i-1];\n          orders[i-1] = tmp;\n        }else{\n          break;\n        }\n      }\n    }\n  }\n\n  function createMarketOrder(Side _side, bytes32 _ticker, uint _amount) public{\n    Order[] storage orders = orderBook[_ticker][_side==Side.BUY ? 1 : 0];\n\n    uint totalFilled = 0;\n    \n    if(_side == Side.BUY){\n      require(balances[msg.sender][\"ETH\"] > 0, \"insufficient balance\");\n    }else{\n      require(balances[msg.sender][_ticker] >= _amount, \"insufficient balance\");\n    }\n\n    for(uint i=0; i < orders.length && totalFilled < _amount; i++){\n      //How much we can fill from order[i]\n      if(totalFilled + orders[i].amount >= _amount){\n        orders[i].filled += _amount - totalFilled;\n      }else{\n        orders[i].filled += orders[i].amount;\n      }\n\n      //Update totalFilled;\n      totalFilled += orders[i].filled;\n      orders[i].amount -= orders[i].filled;\n\n      //Execute the trade & shift balances between buyer/seller\n      if(_side == Side.BUY){\n        //Verify that the buyer has enough ETH to cover the purchase (require)\n        require(balances[msg.sender][\"ETH\"] >= orders[i].filled*orders[i].price, \"insufficient balance\");\n        balances[msg.sender][\"ETH\"] -= orders[i].filled*orders[i].price;\n        balances[msg.sender][_ticker] += orders[i].filled;\n        balances[orders[i].trader][\"ETH\"] += orders[i].filled*orders[i].price;\n        balances[orders[i].trader][_ticker] -= orders[i].filled;\n      }else{\n        //Verify that the seller has enough _ticker to cover the purchase (require)\n        require(balances[msg.sender][_ticker] >= orders[i].filled, \"insufficient balance\");\n        balances[msg.sender][_ticker] -= orders[i].filled;\n        balances[msg.sender][\"ETH\"] += orders[i].filled*orders[i].price;\n        balances[orders[i].trader][_ticker] += orders[i].filled;\n        balances[orders[i].trader][\"ETH\"] -= orders[i].filled*orders[i].price;\n      }\n    }\n\n    if(orders.length != 0){\n      //Loop through the orderbook and remove 100% filled orders\n      uint numOfFilledOrders = 0;\n      for(uint i=0; i < orders.length && orders[i].amount == 0;i++){\n        numOfFilledOrders++;\n      }\n      for(uint i=0; numOfFilledOrders!=0 && i<orders.length-numOfFilledOrders; i++){\n        orders[i] = orders[i+numOfFilledOrders];\n      }\n      for(uint i=1; i <= numOfFilledOrders; i++){\n        orders.pop();\n      }\n    }\n  }\n\n}\n\n",
  "sourcePath": "/Users/riomain/code/blockchain/academy/E201/myDEX/contracts/dex.sol",
  "compiler": {
    "name": "solc",
    "version": "0.8.3+commit.8d00100c.Emscripten.clang"
  },
  "schemaVersion": "3.3.4",
  "updatedAt": "2021-04-21T04:54:13.225Z",
  "networkType": "ethereum",
  "devdoc": {
    "kind": "dev",
    "methods": {
      "owner()": {
        "details": "Returns the address of the current owner."
      },
      "renounceOwnership()": {
        "details": "Leaves the contract without owner. It will not be possible to call `onlyOwner` functions anymore. Can only be called by the current owner. NOTE: Renouncing ownership will leave the contract without an owner, thereby removing any functionality that is only available to the owner."
      },
      "transferOwnership(address)": {
        "details": "Transfers ownership of the contract to a new account (`newOwner`). Can only be called by the current owner."
      }
    },
    "version": 1
  },
  "userdoc": {
    "kind": "user",
    "methods": {},
    "version": 1
  }
}