{
  "contractName": "Wallet",
  "abi": [
    {
      "anonymous": false,
      "inputs": [
        {
          "indexed": true,
          "internalType": "address",
          "name": "previousOwner",
          "type": "address"
        },
        {
          "indexed": true,
          "internalType": "address",
          "name": "newOwner",
          "type": "address"
        }
      ],
      "name": "OwnershipTransferred",
      "type": "event"
    },
    {
      "inputs": [
        {
          "internalType": "address",
          "name": "",
          "type": "address"
        },
        {
          "internalType": "bytes32",
          "name": "",
          "type": "bytes32"
        }
      ],
      "name": "balances",
      "outputs": [
        {
          "internalType": "uint256",
          "name": "",
          "type": "uint256"
        }
      ],
      "stateMutability": "view",
      "type": "function"
    },
    {
      "inputs": [],
      "name": "owner",
      "outputs": [
        {
          "internalType": "address",
          "name": "",
          "type": "address"
        }
      ],
      "stateMutability": "view",
      "type": "function"
    },
    {
      "inputs": [],
      "name": "renounceOwnership",
      "outputs": [],
      "stateMutability": "nonpayable",
      "type": "function"
    },
    {
      "inputs": [
        {
          "internalType": "uint256",
          "name": "",
          "type": "uint256"
        }
      ],
      "name": "tokenList",
      "outputs": [
        {
          "internalType": "bytes32",
          "name": "",
          "type": "bytes32"
        }
      ],
      "stateMutability": "view",
      "type": "function"
    },
    {
      "inputs": [
        {
          "internalType": "bytes32",
          "name": "",
          "type": "bytes32"
        }
      ],
      "name": "tokenMapping",
      "outputs": [
        {
          "internalType": "bytes32",
          "name": "ticker",
          "type": "bytes32"
        },
        {
          "internalType": "address",
          "name": "tokenAddress",
          "type": "address"
        }
      ],
      "stateMutability": "view",
      "type": "function"
    },
    {
      "inputs": [
        {
          "internalType": "address",
          "name": "newOwner",
          "type": "address"
        }
      ],
      "name": "transferOwnership",
      "outputs": [],
      "stateMutability": "nonpayable",
      "type": "function"
    },
    {
      "inputs": [
        {
          "internalType": "bytes32",
          "name": "_ticker",
          "type": "bytes32"
        },
        {
          "internalType": "address",
          "name": "_tokenAddress",
          "type": "address"
        }
      ],
      "name": "addToken",
      "outputs": [],
      "stateMutability": "nonpayable",
      "type": "function"
    },
    {
      "inputs": [
        {
          "internalType": "bytes32",
          "name": "_ticker",
          "type": "bytes32"
        }
      ],
      "name": "getBalance",
      "outputs": [
        {
          "internalType": "uint256",
          "name": "",
          "type": "uint256"
        }
      ],
      "stateMutability": "view",
      "type": "function"
    },
    {
      "inputs": [
        {
          "internalType": "bytes32",
          "name": "_ticker",
          "type": "bytes32"
        }
      ],
      "name": "cleanWallet",
      "outputs": [],
      "stateMutability": "nonpayable",
      "type": "function"
    },
    {
      "inputs": [
        {
          "internalType": "uint256",
          "name": "_amount",
          "type": "uint256"
        },
        {
          "internalType": "bytes32",
          "name": "_ticker",
          "type": "bytes32"
        }
      ],
      "name": "deposit",
      "outputs": [],
      "stateMutability": "payable",
      "type": "function"
    },
    {
      "inputs": [
        {
          "internalType": "uint256",
          "name": "_amount",
          "type": "uint256"
        },
        {
          "internalType": "bytes32",
          "name": "_ticker",
          "type": "bytes32"
        }
      ],
      "name": "withdraw",
      "outputs": [],
      "stateMutability": "nonpayable",
      "type": "function"
    },
    {
      "inputs": [],
      "name": "depositEth",
      "outputs": [],
      "stateMutability": "payable",
      "type": "function"
    },
    {
      "inputs": [
        {
          "internalType": "uint256",
          "name": "_amount",
          "type": "uint256"
        }
      ],
      "name": "withdrawEth",
      "outputs": [],
      "stateMutability": "nonpayable",
      "type": "function"
    }
  ],
  "bytecode": "0x608060405234801561001057600080fd5b5060006100216100c460201b60201c565b9050806000806101000a81548173ffffffffffffffffffffffffffffffffffffffff021916908373ffffffffffffffffffffffffffffffffffffffff1602179055508073ffffffffffffffffffffffffffffffffffffffff16600073ffffffffffffffffffffffffffffffffffffffff167f8be0079c531659141344cd1fd0a4f28419497f9722a3daafe3b4186f6b6457e060405160405180910390a3506100cc565b600033905090565b611a54806100db6000396000f3fe6080604052600436106100c25760003560e01c80638e7394611161007f578063a8d2021a11610059578063a8d2021a1461025a578063c311d04914610283578063c9630cb0146102ac578063f2fde38b146102c8576100c2565b80638e739461146101b75780639776aacf146101f45780639ead72221461021d576100c2565b80631f14df69146100c7578063417ae96014610104578063439370b11461012d578063667cb4ba14610137578063715018a6146101755780638da5cb5b1461018c575b600080fd5b3480156100d357600080fd5b506100ee60048036038101906100e991906113e8565b6102f1565b6040516100fb919061178a565b60405180910390f35b34801561011057600080fd5b5061012b6004803603810190610126919061144d565b610316565b005b610135610493565b005b34801561014357600080fd5b5061015e6004803603810190610159919061144d565b61058c565b60405161016c9291906116c1565b60405180910390f35b34801561018157600080fd5b5061018a6105d0565b005b34801561019857600080fd5b506101a161070a565b6040516101ae919061162b565b60405180910390f35b3480156101c357600080fd5b506101de60048036038101906101d9919061144d565b610733565b6040516101eb919061178a565b60405180910390f35b34801561020057600080fd5b5061021b60048036038101906102169190611476565b610835565b005b34801561022957600080fd5b50610244600480360381019061023f91906114b2565b610970565b60405161025191906116a6565b60405180910390f35b34801561026657600080fd5b50610281600480360381019061027c91906114db565b610994565b005b34801561028f57600080fd5b506102aa60048036038101906102a591906114b2565b610c4e565b005b6102c660048036038101906102c191906114db565b610f65565b005b3480156102d457600080fd5b506102ef60048036038101906102ea91906113bf565b61118e565b005b6003602052816000526040600020602052806000526040600020600091509150505481565b80600073ffffffffffffffffffffffffffffffffffffffff166001600083815260200190815260200160002060010160009054906101000a900473ffffffffffffffffffffffffffffffffffffffff1673ffffffffffffffffffffffffffffffffffffffff1614156103bd576040517f08c379a00000000000000000000000000000000000000000000000000000000081526004016103b49061172a565b60405180910390fd5b6103c5611337565b73ffffffffffffffffffffffffffffffffffffffff166103e361070a565b73ffffffffffffffffffffffffffffffffffffffff1614610439576040517f08c379a00000000000000000000000000000000000000000000000000000000081526004016104309061174a565b60405180910390fd5b6000600360003373ffffffffffffffffffffffffffffffffffffffff1673ffffffffffffffffffffffffffffffffffffffff1681526020019081526020016000206000848152602001908152602001600020819055505050565b61051634600360003373ffffffffffffffffffffffffffffffffffffffff1673ffffffffffffffffffffffffffffffffffffffff16815260200190815260200160002060007f455448000000000000000000000000000000000000000000000000000000000081526020019081526020016000205461133f90919063ffffffff16565b600360003373ffffffffffffffffffffffffffffffffffffffff1673ffffffffffffffffffffffffffffffffffffffff16815260200190815260200160002060007f4554480000000000000000000000000000000000000000000000000000000000815260200190815260200160002081905550565b60016020528060005260406000206000915090508060000154908060010160009054906101000a900473ffffffffffffffffffffffffffffffffffffffff16905082565b6105d8611337565b73ffffffffffffffffffffffffffffffffffffffff166105f661070a565b73ffffffffffffffffffffffffffffffffffffffff161461064c576040517f08c379a00000000000000000000000000000000000000000000000000000000081526004016106439061174a565b60405180910390fd5b600073ffffffffffffffffffffffffffffffffffffffff1660008054906101000a900473ffffffffffffffffffffffffffffffffffffffff1673ffffffffffffffffffffffffffffffffffffffff167f8be0079c531659141344cd1fd0a4f28419497f9722a3daafe3b4186f6b6457e060405160405180910390a360008060006101000a81548173ffffffffffffffffffffffffffffffffffffffff021916908373ffffffffffffffffffffffffffffffffffffffff160217905550565b60008060009054906101000a900473ffffffffffffffffffffffffffffffffffffffff16905090565b600081600073ffffffffffffffffffffffffffffffffffffffff166001600083815260200190815260200160002060010160009054906101000a900473ffffffffffffffffffffffffffffffffffffffff1673ffffffffffffffffffffffffffffffffffffffff1614156107dc576040517f08c379a00000000000000000000000000000000000000000000000000000000081526004016107d39061172a565b60405180910390fd5b600360003373ffffffffffffffffffffffffffffffffffffffff1673ffffffffffffffffffffffffffffffffffffffff168152602001908152602001600020600084815260200190815260200160002054915050919050565b61083d611337565b73ffffffffffffffffffffffffffffffffffffffff1661085b61070a565b73ffffffffffffffffffffffffffffffffffffffff16146108b1576040517f08c379a00000000000000000000000000000000000000000000000000000000081526004016108a89061174a565b60405180910390fd5b60405180604001604052808381526020018273ffffffffffffffffffffffffffffffffffffffff16815250600160008481526020019081526020016000206000820151816000015560208201518160010160006101000a81548173ffffffffffffffffffffffffffffffffffffffff021916908373ffffffffffffffffffffffffffffffffffffffff16021790555090505060028290806001815401808255809150506001900390600052602060002001600090919091909150555050565b6002818154811061098057600080fd5b906000526020600020016000915090505481565b80600073ffffffffffffffffffffffffffffffffffffffff166001600083815260200190815260200160002060010160009054906101000a900473ffffffffffffffffffffffffffffffffffffffff1673ffffffffffffffffffffffffffffffffffffffff161415610a3b576040517f08c379a0000000000000000000000000000000000000000000000000000000008152600401610a329061172a565b60405180910390fd5b82600360003373ffffffffffffffffffffffffffffffffffffffff1673ffffffffffffffffffffffffffffffffffffffff1681526020019081526020016000206000848152602001908152602001600020541015610ace576040517f08c379a0000000000000000000000000000000000000000000000000000000008152600401610ac59061176a565b60405180910390fd5b610b3183600360003373ffffffffffffffffffffffffffffffffffffffff1673ffffffffffffffffffffffffffffffffffffffff16815260200190815260200160002060008581526020019081526020016000205461135590919063ffffffff16565b600360003373ffffffffffffffffffffffffffffffffffffffff1673ffffffffffffffffffffffffffffffffffffffff1681526020019081526020016000206000848152602001908152602001600020819055506001600083815260200190815260200160002060010160009054906101000a900473ffffffffffffffffffffffffffffffffffffffff1673ffffffffffffffffffffffffffffffffffffffff1663a9059cbb33856040518363ffffffff1660e01b8152600401610bf692919061167d565b602060405180830381600087803b158015610c1057600080fd5b505af1158015610c24573d6000803e3d6000fd5b505050506040513d601f19601f82011682018060405250810190610c489190611424565b50505050565b80600360003373ffffffffffffffffffffffffffffffffffffffff1673ffffffffffffffffffffffffffffffffffffffff16815260200190815260200160002060007f45544800000000000000000000000000000000000000000000000000000000008152602001908152602001600020541015610d01576040517f08c379a0000000000000000000000000000000000000000000000000000000008152600401610cf89061170a565b60405180910390fd5b610d8481600360003373ffffffffffffffffffffffffffffffffffffffff1673ffffffffffffffffffffffffffffffffffffffff16815260200190815260200160002060007f455448000000000000000000000000000000000000000000000000000000000081526020019081526020016000205461135590919063ffffffff16565b600360003373ffffffffffffffffffffffffffffffffffffffff1673ffffffffffffffffffffffffffffffffffffffff16815260200190815260200160002060007f455448000000000000000000000000000000000000000000000000000000000081526020019081526020016000208190555060003373ffffffffffffffffffffffffffffffffffffffff1682604051610e1e90611616565b60006040518083038185875af1925050503d8060008114610e5b576040519150601f19603f3d011682016040523d82523d6000602084013e610e60565b606091505b5050905080610f6157610eec82600360003373ffffffffffffffffffffffffffffffffffffffff1673ffffffffffffffffffffffffffffffffffffffff16815260200190815260200160002060007f455448000000000000000000000000000000000000000000000000000000000081526020019081526020016000205461133f90919063ffffffff16565b600360003373ffffffffffffffffffffffffffffffffffffffff1673ffffffffffffffffffffffffffffffffffffffff16815260200190815260200160002060007f45544800000000000000000000000000000000000000000000000000000000008152602001908152602001600020819055505b5050565b80600073ffffffffffffffffffffffffffffffffffffffff166001600083815260200190815260200160002060010160009054906101000a900473ffffffffffffffffffffffffffffffffffffffff1673ffffffffffffffffffffffffffffffffffffffff16141561100c576040517f08c379a00000000000000000000000000000000000000000000000000000000081526004016110039061172a565b60405180910390fd5b61106f83600360003373ffffffffffffffffffffffffffffffffffffffff1673ffffffffffffffffffffffffffffffffffffffff16815260200190815260200160002060008581526020019081526020016000205461133f90919063ffffffff16565b600360003373ffffffffffffffffffffffffffffffffffffffff1673ffffffffffffffffffffffffffffffffffffffff1681526020019081526020016000206000848152602001908152602001600020819055506001600083815260200190815260200160002060010160009054906101000a900473ffffffffffffffffffffffffffffffffffffffff1673ffffffffffffffffffffffffffffffffffffffff166323b872dd3330866040518463ffffffff1660e01b815260040161113693929190611646565b602060405180830381600087803b15801561115057600080fd5b505af1158015611164573d6000803e3d6000fd5b505050506040513d601f19601f820116820180604052508101906111889190611424565b50505050565b611196611337565b73ffffffffffffffffffffffffffffffffffffffff166111b461070a565b73ffffffffffffffffffffffffffffffffffffffff161461120a576040517f08c379a00000000000000000000000000000000000000000000000000000000081526004016112019061174a565b60405180910390fd5b600073ffffffffffffffffffffffffffffffffffffffff168173ffffffffffffffffffffffffffffffffffffffff16141561127a576040517f08c379a0000000000000000000000000000000000000000000000000000000008152600401611271906116ea565b60405180910390fd5b8073ffffffffffffffffffffffffffffffffffffffff1660008054906101000a900473ffffffffffffffffffffffffffffffffffffffff1673ffffffffffffffffffffffffffffffffffffffff167f8be0079c531659141344cd1fd0a4f28419497f9722a3daafe3b4186f6b6457e060405160405180910390a3806000806101000a81548173ffffffffffffffffffffffffffffffffffffffff021916908373ffffffffffffffffffffffffffffffffffffffff16021790555050565b600033905090565b6000818361134d91906117c1565b905092915050565b600081836113639190611817565b905092915050565b60008135905061137a816119c2565b92915050565b60008151905061138f816119d9565b92915050565b6000813590506113a4816119f0565b92915050565b6000813590506113b981611a07565b92915050565b6000602082840312156113d157600080fd5b60006113df8482850161136b565b91505092915050565b600080604083850312156113fb57600080fd5b60006114098582860161136b565b925050602061141a85828601611395565b9150509250929050565b60006020828403121561143657600080fd5b600061144484828501611380565b91505092915050565b60006020828403121561145f57600080fd5b600061146d84828501611395565b91505092915050565b6000806040838503121561148957600080fd5b600061149785828601611395565b92505060206114a88582860161136b565b9150509250929050565b6000602082840312156114c457600080fd5b60006114d2848285016113aa565b91505092915050565b600080604083850312156114ee57600080fd5b60006114fc858286016113aa565b925050602061150d85828601611395565b9150509250929050565b6115208161184b565b82525050565b61152f81611869565b82525050565b60006115426026836117b0565b915061154d826118cc565b604082019050919050565b60006115656012836117b0565b91506115708261191b565b602082019050919050565b60006115886014836117b0565b915061159382611944565b602082019050919050565b60006115ab6020836117b0565b91506115b68261196d565b602082019050919050565b60006115ce6016836117b0565b91506115d982611996565b602082019050919050565b60006115f16000836117a5565b91506115fc826119bf565b600082019050919050565b61161081611893565b82525050565b6000611621826115e4565b9150819050919050565b60006020820190506116406000830184611517565b92915050565b600060608201905061165b6000830186611517565b6116686020830185611517565b6116756040830184611607565b949350505050565b60006040820190506116926000830185611517565b61169f6020830184611607565b9392505050565b60006020820190506116bb6000830184611526565b92915050565b60006040820190506116d66000830185611526565b6116e36020830184611517565b9392505050565b6000602082019050818103600083015261170381611535565b9050919050565b6000602082019050818103600083015261172381611558565b9050919050565b600060208201905081810360008301526117438161157b565b9050919050565b600060208201905081810360008301526117638161159e565b9050919050565b60006020820190508181036000830152611783816115c1565b9050919050565b600060208201905061179f6000830184611607565b92915050565b600081905092915050565b600082825260208201905092915050565b60006117cc82611893565b91506117d783611893565b9250827fffffffffffffffffffffffffffffffffffffffffffffffffffffffffffffffff0382111561180c5761180b61189d565b5b828201905092915050565b600061182282611893565b915061182d83611893565b9250828210156118405761183f61189d565b5b828203905092915050565b600061185682611873565b9050919050565b60008115159050919050565b6000819050919050565b600073ffffffffffffffffffffffffffffffffffffffff82169050919050565b6000819050919050565b7f4e487b7100000000000000000000000000000000000000000000000000000000600052601160045260246000fd5b7f4f776e61626c653a206e6577206f776e657220697320746865207a65726f206160008201527f6464726573730000000000000000000000000000000000000000000000000000602082015250565b7f496e7375666669656e742062616c616e63650000000000000000000000000000600082015250565b7f546f6b656e20646f6573206e6f74206578697374000000000000000000000000600082015250565b7f4f776e61626c653a2063616c6c6572206973206e6f7420746865206f776e6572600082015250565b7f42616c616e6365206e6f742073756666696369656e7400000000000000000000600082015250565b50565b6119cb8161184b565b81146119d657600080fd5b50565b6119e28161185d565b81146119ed57600080fd5b50565b6119f981611869565b8114611a0457600080fd5b50565b611a1081611893565b8114611a1b57600080fd5b5056fea2646970667358221220d5afb01179f22a4b2efffcece51949698ea395a639176824748a4607543ae8e464736f6c63430008030033",
  "immutableReferences": {},
  "source": "// SPDX-License-Identifier: MIT\npragma solidity ^0.8.0;\n\nimport \"../node_modules/@openzeppelin/contracts/token/ERC20/IERC20.sol\";\nimport \"../node_modules/@openzeppelin/contracts/utils/math/SafeMath.sol\";\nimport \"../node_modules/@openzeppelin/contracts/access/Ownable.sol\";\n\ncontract Wallet is Ownable{\n  using SafeMath for uint256;\n\n  struct Token {\n    bytes32 ticker;\n    address tokenAddress;\n  }\n  mapping(bytes32 => Token) public tokenMapping;\n  bytes32[] public tokenList; //id for tokens\n\n  //supports multiple tokens\n  //address: account, bytes32: ticker symbol, uint256: balance\n  mapping(address => mapping(bytes32 => uint256)) public balances;\n\n  modifier tokenExist(bytes32 _ticker){\n    require(tokenMapping[_ticker].tokenAddress != address(0), \"Token does not exist\");\n    _;\n  }\n\n  function addToken(bytes32 _ticker, address _tokenAddress) external onlyOwner{\n    tokenMapping[_ticker] = Token(_ticker, _tokenAddress);\n    tokenList.push(_ticker);\n  }\n\n  function getBalance(bytes32 _ticker) view external tokenExist(_ticker) returns(uint256){\n    return balances[msg.sender][_ticker];\n  }\n\n  //only for testing purpose\n  function cleanWallet(bytes32 _ticker) external tokenExist(_ticker) onlyOwner{ \n    balances[msg.sender][_ticker] = 0;\n  }\n\n  function deposit(uint _amount, bytes32 _ticker) payable external tokenExist(_ticker){\n    balances[msg.sender][_ticker] = balances[msg.sender][_ticker].add(_amount);\n    IERC20(tokenMapping[_ticker].tokenAddress).transferFrom(msg.sender, address(this), _amount);\n  }\n\n  function withdraw(uint _amount, bytes32 _ticker) external tokenExist(_ticker){\n    require(balances[msg.sender][_ticker] >= _amount, \"Balance not sufficient\");\n\n    balances[msg.sender][_ticker] = balances[msg.sender][_ticker].sub(_amount);\n    IERC20(tokenMapping[_ticker].tokenAddress).transfer(msg.sender, _amount);\n  }\n\n  function depositEth() payable external {\n    balances[msg.sender][bytes32(\"ETH\")] = balances[msg.sender][bytes32(\"ETH\")].add(msg.value);\n  }\n    \n  function withdrawEth(uint _amount) external {\n    require(balances[msg.sender][bytes32(\"ETH\")] >= _amount,'Insuffient balance'); \n    balances[msg.sender][bytes32(\"ETH\")] = balances[msg.sender][bytes32(\"ETH\")].sub(_amount);\n    (bool success, ) = payable(msg.sender).call{value:_amount}(\"\");\n    if(!success) balances[msg.sender][bytes32(\"ETH\")] = balances[msg.sender][bytes32(\"ETH\")].add(_amount);\n  }\n    \n}\n",
  "sourcePath": "/Users/riomain/code/blockchain/academy/E201/myDEX/contracts/wallet.sol",
  "compiler": {
    "name": "solc",
    "version": "0.8.3+commit.8d00100c.Emscripten.clang"
  },
  "schemaVersion": "3.3.4",
  "updatedAt": "2021-04-21T04:54:00.096Z",
  "devdoc": {
    "kind": "dev",
    "methods": {
      "owner()": {
        "details": "Returns the address of the current owner."
      },
      "renounceOwnership()": {
        "details": "Leaves the contract without owner. It will not be possible to call `onlyOwner` functions anymore. Can only be called by the current owner. NOTE: Renouncing ownership will leave the contract without an owner, thereby removing any functionality that is only available to the owner."
      },
      "transferOwnership(address)": {
        "details": "Transfers ownership of the contract to a new account (`newOwner`). Can only be called by the current owner."
      }
    },
    "version": 1
  },
  "userdoc": {
    "kind": "user",
    "methods": {},
    "version": 1
  }
}